:020000040000FA
:060000009CEF0FF012005E
:0A0006000100941F00006A000000D2
:0400100002000000EA
:0C00140046EC05F0FB0EDBCFF3FFDB0633
:10002000F35000090AE094EC05F0FA0EFFEC05F03D
:10003000F3E1151CF1E1010E01D0000E75EF05F0A2
:1000400046EC05F03B0EE12402E3E168E652E16E86
:10005000010EDB6A020EDB6AF90EDBCFF6FFFA0E49
:10006000DBCFF7FFFB0EDBCFF8FF0800F550DF6EAC
:10007000DF5002E199EF04F0250EDF5C02E08CEF27
:1000800004F0030EDB6A040EDB6A050EDB6A060E63
:10009000DB6A070EDB6AAEEC04F02D0EDF5C0CE0D1
:1000A0002B0EDF5C09E0200EDF5C06E0230EDF5C38
:1000B00003E0300EDF5C1AE1DF50300A14E0130A6F
:1000C0000FE0030A0AE00B0A05E0060AE4E1030E6A
:1000D000DB80E1D7030EDB82DED7030EDB84DBD7C8
:1000E000030EDB86D8D7030EDB88D5D72A0EDF5C5C
:1000F0001BE1AAEC04F0F8EC04F010E0030EDB8046
:1001000006680768130EDBCF0DF0140EDBCF0EF080
:100110001DEC0FF0040E04C0DBFF03D0130EE1EC66
:1001200004F0AEEC04F00BD0090EDB6A4FEC05F0E6
:1001300003E0C3EC05F0FAD7090EE1EC04F0030E7E
:10014000DBB0DB982E0EDF5C1BE1AEEC04F02A0E78
:10015000DF5C0BE1AAEC04F0F8EC04F003E1130E11
:1001600033EC05F0AEEC04F00BD0090EDB6A4FEC7B
:1001700005F003E0C3EC05F0FAD7090E33EC05F007
:10018000680EDF5C07E1AEEC04F0680EDF5C1DE199
:10019000030E18D0740EDF5C17E07A0EDF5C14E0FB
:1001A000480EDF5C06E0540EDF5C03E05A0EDF5CB5
:1001B00002E1020E07D06C0EDF5C03E06A0EDF5C2A
:1001C00004E1010E86EC05F0C9DBDF506E0A01E1A7
:1001D0007FD31E0A01E192D1200A01E18FD13F0AAB
:1001E00001E149D11A0A01E146D10D0A01E143D1E9
:1001F000200A01E140D13A0A01E13DD1200A01E1A2
:100200003AD1260A01E135D10D0A01E132D11A0AAB
:1002100001E1D9D0200A4AE0300A1FE0460A0EE088
:10022000250A01E083D3D950F90FE96EFF0EDA20D9
:10023000EA6E010EEE5E000EEE5AEE5A94EC05F0F8
:10024000250EE66E95DB03E1151C01E169D390EC08
:1002500005F001E26BD3DB2A69D3080EDB6A040EDA
:10026000DB50010806E2040EDB0458EC05F0DB501D
:100270008BDB080EDB5009E0030EDB50010B05E1C0
:1002800072DB01E04DD3080EDB6A64DBEFCFDFFFEA
:1002900008EC06F003E1151C01E142D390EC05F0F7
:1002A00001E3DB2A60DB01E141D33AD3070EDB50E7
:1002B00002080FE1D4EC05F0030E9BEC05F00E0EE6
:1002C000EECFDBFF0F0EEECFDBFF100EEECFDBFF2E
:1002D00020D0F70EDBCF17F0F80EDBCF18F0020EB0
:1002E000175E000E185AF70E17C0DBFFF80E18C085
:1002F000DBFF17C0E9FF18C0EAFF8BEC05F0166AB8
:100300000E0E14C0DBFF0F0E15C0DBFF100E16C063
:10031000DBFF0E0EDBCFE6FF0F0EDBCFE6FF100E8E
:10032000DBCFE6FFF8EC0EF0E552E552E552130E96
:1003300005C0DBFF140E06C0DBFF060EDB5005E038
:10034000130ECFEC05F001E26ADBF3EC05F002E2FC
:10035000130E37DBB6EC05F006E0040ECFEC05F02B
:1003600002E2050E2EDB030EDBB005D0FCDA01E065
:10037000D7D2080EDB6A090EDB6A0E0EDBCFF6FF62
:100380000F0EDBCFF7FF100EDBCFF8FF0800F550A4
:10039000DF6EDF5014E0F9EC05F011E208EC06F036
:1003A00003E1151C01E1BCD2BBDB01E3DB2A090E32
:1003B000DB2AD9500E0FE96E000ECBDBE7D7D3DA7C
:1003C00001E1B4D2ADD2C6DA110EEECFDBFF120ED0
:1003D000EDCFDBFF110EDBCFE6FF120EDBCFE6FF2A
:1003E000EAEC0EF0E552E552130EF3CFDBFF140EEC
:1003F000F4CFDBFF060EDB5004E0130ED0DB01E28E
:100400000EDBF3EC05F002E2130EDBDAAFDB05E006
:10041000040EC5DB02E2050ED4DA030EDBB005D014
:10042000A2DA01E07DD2080EDB6A090EDB6A110E4A
:10043000DBCFE9FF120EDBCFEAFFEFCFDFFFDF50AC
:1004400014E0D7DB12E2E4DB03E1151C01E168D222
:1004500067DB01E3DB2A090EDB2A110EDB2ADBCF87
:10046000E9FF120EE8E3DB2AE6D77DDA01E15ED28E
:1004700057D2030EDB8E070EDB0410E195DB040E72
:100480005ADB0A0EEECFDBFF0B0EEECFDBFF0C0EBE
:10049000EECFDBFF0D0EEECFDBFF6CD0070EDB5097
:1004A00003082CE1030EDBAE0DD0B2DA020E76DAD1
:1004B000EFCF14F0156A166A176A14AE39D01568B2
:1004C000166835D0F70EDBCF15F0F80EDBCF16F03F
:1004D000020E155E000E165AF70E15C0DBFFF80E61
:1004E00016C0DBFF15C0E9FF16C0EAFFEFCF14F01E
:1004F0000A0E14C0DBFF0B0EDB6A38D0070EDB5090
:10050000020809E1030EDBAE04D059DB16AE10D0B1
:100510000ED055DB0DD0030EDBAE12D079DA020E11
:100520003DDAF9DA166A176A15AE02D0166817684E
:10053000E2DA0C0E16C0DBFF0D0E17C0DBFF1AD07F
:10054000F70EDBCF16F0F80EDBCF17F0020E165EBB
:10055000000E175AF70E16C0DBFFF80E17C0DBFFB0
:1005600016C0E9FF17C0EAFFD6DAC5DA0C0EDB6A5F
:100570000D0EDB6A060EDB5005E1010EF36E050E73
:10058000F3CFDBFF150EDB6A160EDB6AD950370F8F
:10059000146E000EDA20156E390E14C0DBFF3A0E11
:1005A00015C0DBFF380EDB6A080EDB6A0A0EAEDA16
:1005B000DF50780A12E0200A10E0280A0CE0200A36
:1005C0000AE03F0A06E00D0A02E0200A08E1020EF6
:1005D00005D0080E03D0080EDF26100E97DA030EA2
:1005E000DBBE02D0DB92DB94DB50800B24E08ADAA6
:1005F000D890030EEB50000A08E6000EEE5C000EE9
:10060000EE58000EEE58000EEE5815E213DA0B68A5
:100610000C680D680E68B2EC0EF00A0E00C0DBFF2D
:100620000B0E01C0DBFF0C0E02C0DBFF0D0E03C082
:10063000DBFF2D0E08D0030EDBA202D02B0E03D061
:10064000DBA408D0200EF36E170EF3CFDBFF150EE0
:10065000DB2A02D0170EDB6A050EDB5003E1B7D9A7
:1006600001E189D0700E146E1F0E156E000E166E0D
:10067000070EDBCF17F0186A196A1A6A17C00BF059
:1006800018C00CF019C00DF01AC00EF0D3D94AEC06
:100690000FF014500024F36E15500120F46E165024
:1006A0000220F86EF4CFF7FFF3CFF6FF0800090E33
:1006B000F5CFDBFF580EDF5C0FE1610EF36E090E24
:1006C0007BD90AE3200E146E090EDBCFE7FF14502E
:1006D000E75E090EE7CFDBFF070EDBCF14F0156AEC
:1006E000166A176A0FDA14C00BF015C00CF016C0AA
:1006F0000DF017C00EF0EECF04F0EECF05F0EECF08
:1007000006F0EFCF07F04AEC0FF007C0EDFF06C090
:10071000EDFF05C0EDFF04C0EFFF390EDBCFE9FFB1
:10072000DB063A0EDBCFEAFF01E2DB06090EDBCF88
:10073000EFFF150EDB2A4BD995E1030EDBA61DD08A
:100740006F0EDF5C06E1C1D918E3150EDB285BDA1A
:1007500014D0780EDF5C09E0580EDF5C06E0620E14
:10076000DF5C03E0420EDF5C08E1020EF36E160E62
:10077000F3CFDBFF02D0150EDB6A030EDB50100B4C
:100780000EE0040EDBCF14F0050EDB50D8801454BD
:1007900006E2060EDB5003E1040EDB5034DA95D995
:1007A0000AE2050EDBCFE7FF150EDB50E75E050E14
:1007B000E7CFDBFF02D0050EDB6A040EDBCF14F0BF
:1007C000160E45D9D880145414E2160EDBCFE6FF7E
:1007D000150EDBCFE6FF040EDBCFE6FF050EDB5088
:1007E000E552E75CE552D880E754E552D880E754FB
:1007F0005FD9030EDB50010B0BE1080EDB5008E064
:10080000B2D801E08DD0080EDB50BED8080EDB6AEE
:10081000170EDB5007E088D9170EF1D903E1151C3C
:1008200001E17ED0160EDB5016E07ED9300EE66E6A
:100830009FD802E1151C74E077D9DFCFE6FF70EC9A
:100840000EF0E552E552E552F4CF15F00001F31C2D
:1008500002E1151C65E0050EDBCF14F0160EDB502F
:10086000D880145409E2050EDBCFE7FF160EDB50EB
:10087000E75E050EE7CFDBFF300EE66E050ECBD947
:100880004FE1390EDB2ADBCFE9FF3A0E01E3DB2A29
:10089000DBCFEAFF090EEFCFDBFFDB500EE044D9E0
:1008A000090EADD902E1151C3BE0390EDB2ADBCF86
:1008B000E9FF3A0EEDE3DB2AEBD755D831E1160E0E
:1008C000DBCFE6FF080EC3D8E552E7245DD82ED073
:1008D000070EDB50030A1CE0010A14E0030A07E0DC
:1008E0007BD9DBCFEEFF020EDBCFEDFF1FD0F5D8BB
:1008F000196A17AE02D0186819682CD8BCD819C06C
:10090000EEFF14D0EAD817BE186824D8B4D80ED099
:1009100063D9DBCFEFFF0AD07BD905E1151C03E1DA
:10092000F368F46810D0FCD801E3DB2A79D935EFFD
:1009300000F0010EDBCF14F0020EDBCF15F014C077
:10094000F3FF15C0F4FF3B0EE15C02E2E16AE55201
:10095000E16ECBD029D9020E9BEF05F061D90800DA
:10096000F550DF6E1200200EE66E080E0BEF06F05B
:1009700070EC0EF0E552E552E552F3CF14F0F4CFEF
:1009800015F00001F31C1200146E156AD950010F06
:100990004DD91450EE261550ED221200185E000EAF
:1009A000195AF70E18C0DBFFF80E19C0DBFF18C08C
:1009B000E9FF19C0EAFF1200DBCFF4FFF350F45C4B
:1009C0001200DB50E76E040EE7CFDBFF12000A0EC9
:1009D000DBCF14F00B0EDBCF15F00C0EDBCF16F0D7
:1009E0000D0EDBCF17F01450151016101710120053
:1009F000130EEECFDBFF140EEDCFDBFF130EDBCFBC
:100A000014F0140EDBCF15F00001800E1514120047
:100A1000F70EDBCF18F0F80EDBCF19F01200050E41
:100A2000DB50E66ED950130F01D9E552E750EE6E58
:100A3000ED6A12000A0EDBCF04F00B0EDBCF05F0DF
:100A40000C0EDBCF06F00D0EDBCF07F01200DBCF74
:100A5000E6FF150EDBCFE6FF050EDB50E552E7247F
:100A6000E552E7241200DB50CED8010EF36E060EDD
:100A7000F3CFDBFF1200EE50EFCFEAFFE96E16C0B6
:100A8000EEFF17C0EEFF18C0EEFF1200D9CFE6FF51
:100A9000DACFE6FFE1CFD9FFE2CFDAFF1200DFCFF6
:100AA000E6FFE66A8AEC0FF0E552E552F3501200D9
:100AB000E76E080EE7CFDBFF1200EECF14F0EECFAB
:100AC00015F0EFCF16F0176A1200050EDBCF14F009
:100AD000150EDB50D88014541200010EDBCF16F037
:100AE000020EDBCF17F0186A1200E552E5CFDAFFED
:100AF000E7CFD9FF12000A0E14C0DBFF0B0E15C0A2
:100B0000DBFF1200D9500A0F16EF06F0F36E070E46
:100B1000F3CFDBFF1200EECF14F0EFCF15F0120091
:100B2000010EDB2A020E1200FC0EDBCFE6FFFD0EEB
:100B3000DBCFE6FF1200145E000E155AF70E14C04C
:100B4000DBFFF80E15C0DBFF14C0E9FF15C0EAFF9C
:100B50001200DA20EA6EEF2AEECFF6FF000EEF2247
:100B6000EECFF7FFEF22EECFF8FF1200040EDBCF3F
:100B7000E6FF130EDB50E552E75C9ADFDB5004DF43
:100B8000060EDB501200090EDB500A0DF350DF2475
:100B9000D00FE76E090EE7CFDBFFAEEF04F0DB50BE
:100BA000F36E050EDCEF04F0F70EDBCF14F0F80E59
:100BB000DBCF15F01200DFCFE6FFB8EF04F028DF3F
:100BC000030EECDE5DEF05F00AEC00F0E552E552B5
:100BD000E552E55200091200BDDEEE50EFCFEAFF0C
:100BE000E96E010E1200130EDB50F36E040EDCEF03
:100BF00004F0040EDB50F36E090EDCEF04F0DBCFE3
:100C0000E6FFB8EF04F0E76E050EE7CFDBFF12005A
:100C10008BDFDBEF05F0DBCFE6FF86DFE4EF05F0EF
:100C2000D950F90FE96EFF0EA9EF05F0E96E000E3D
:060C3000DA20EA6E12005A
:0A0C3600800EE66E85DAE552890EA5
:100C4000706ED80E716E020E726E100E736E778E0D
:100C5000779C606A0F01506B0E01206B306B406B0C
:100C6000506B606B706B0D01F80EF86F0F01006B2D
:100C7000016B046B056B086B096B0C6B0D6B106BD8
:100C8000116B146B156B0D013F0ED46FD56BE06BC0
:100C9000110EE16FE26FE36BE46BE56BE66BE76B04
:100CA000500EF06F050EF16FF26BF26B0F01186BC7
:100CB000196B19971C6B1D6B1D97E66A44DAE55298
:100CC0001200D9CFE6FFE1CFD9FF1A0EE126D950A5
:100CD000060FE96EDACFEAFF400EEE6E0F0EED6EF4
:100CE000D950080FE96EDACFEAFF300EEE6E0F0E24
:100CF000ED6ED9500A0FE96EDACFEAFF200EEE6EE4
:100D00000F0EED6ED9500C0FE96EDACFEAFF200E10
:100D1000EE6E0E0EED6ED9500E0FE96EDACFEAFFD1
:100D2000300EEE6E0E0EED6ED950100FE96EDACF6A
:100D3000EAFF400EEE6E0E0EED6ED950120FE96E08
:100D4000DACFEAFF500EEE6E0E0EED6ED950140F94
:100D5000E96EDACFEAFF600EEE6E0E0EED6ED95040
:100D6000160FE96EDACFEAFF700EEE6E0E0EED6E24
:100D70000D01F8417F0BE76E190EE7CFDBFFDF6A4D
:100D8000080EDF5C01E3E4D0D950060F146EDACF11
:100D900015F0DF50020D1450F324E96E1550F420C5
:100DA000EA6E020EEECFDBFF030EEDCFDBFF020E8D
:100DB000DBCF06F0030EDBCF07F0040E06C0DBFF2F
:100DC000050E07C0DBFFDF50020810E2190EDBCF73
:100DD000F3FFF390F342F3CFDBFFD950190FE96E25
:100DE000DACFEAFFEF50010B01E1B0D0020EDBCF0A
:100DF000E9FF030EDBCFEAFFEF50080B01E0A6D0BE
:100E0000FC0E146E020EDBCFE9FF030EDBCFEAFF10
:100E10001450EF16F70EDB50030B146E020EDBCFEF
:100E2000E9FF030EDBCFEAFF1450EF12F70EDBAC45
:100E300008D0F80EDB504009E76E180EE7CFDBFF55
:100E400006D0F80EDB50E76E180EE7CFDBFF050E7D
:100E5000E76E020EDBCFE9FF030EDBCFEAFFE750C0
:100E6000E926000EEA22180EDBCFEFFFF70EDBAA11
:100E700006D0010EF36E180EF3CFDBFF02D0180E72
:100E8000DB6ADBCFE6FFD950FB0FE96EFF0EDA20FD
:100E9000EA6EEECFE6FFEECFE6FFEECFE6FFEFCF56
:100EA000E6FF010EE76E020EDBCF14F0030EDBCF80
:100EB00015F0E7501426000E152214C0E6FF15C0E9
:100EC000E6FF56D9166E070EE15E1650D950020F96
:100ED000E96EDACFEAFF060EEE26000EED22010ED5
:100EE000DB6AF80EDB50F36E010EDBCFF4FFF3503C
:100EF000F45C1AE2F90EDBCFE9FFDB2AFA0EDBCF56
:100F0000EAFF01E3DB2AEF50E66E020EDBCFE9FFDA
:100F1000DB2A030EDBCFEAFF01E3DB2AE552E750D1
:100F2000EF6E010EDB2ADDD7040EDBCFE9FF050EE5
:100F3000DBCFEAFFEF50040B07E1040EDBCFE9FF44
:100F4000050EDBCFEAFFEF86010E04D0DF2A18D7AB
:100F5000000E00D0146E1A0EE15C02E2E16AE55266
:100F6000E16E1450E552E7CFD9FF1200D9CFE6FF6A
:100F7000E1CFD9FF060EE12600016C6B74AE15D0EF
:100F8000070E6F14E66EBDDAE552F3CFDEFFF4CF45
:100F9000DDFFDECFE9FFDDCFEAFFEF501F0B0001E1
:100FA0006C6FA49274AC0BD002D0000EC0D0F70EC0
:100FB000DBCFE9FFF80EDBCFEAFFEF86749CD9CFD9
:100FC000E9FFDACFEAFF020EEECFDBFF030EEDCF33
:100FD000DBFFF70EDBCFE9FFF80EDBCFEAFFEF6AAE
:100FE000DECFE9FFDDCFEAFF050EE926000EEA229B
:100FF000050EEFCFDBFFDB500F0BE66EF90EDBCFFC
:10100000E9FFFA0EDBCFEAFFE552E750EF6ED95069
:10101000050FE96EDACFEAFFEF50400B07E0F70E5D
:10102000DBCFE9FFF80EDBCFEAFFEF8CDECFE9FF85
:10103000DDCFEAFF020EE926000EEA22050EEFCF11
:10104000DBFFD950050FE96EDACFEAFFEF50080B4E
:101050000DE0F70EDBCFE9FFF80EDBCFEAFFEF8AFA
:10106000010EF36E050EF3CFDBFF02D0050EDB6A37
:10107000DBCFE6FFFD0EDBCFE6FFFE0EDBCFE6FFAC
:10108000DECF14F0DDCF15F0010E1426000E152270
:1010900014C0E6FF15C0E6FF4BD9166E050EE15EE3
:1010A0001650060EDE26000EDD22F90EDBCFE9FF1C
:1010B000FA0EDBCFEAFF050EEFCFDBFF040EDB6A93
:1010C000050EDB50F36E040EDBCFF4FFF350F45C3F
:1010D00019E2DFCFE9FFDF2A010EDBCFEAFF01E3F0
:1010E000DB2AEF50E66EFB0EDBCFE9FFDB2AFC0EBE
:1010F000DBCFEAFF01E3DB2AE552E750EF6E040E97
:10110000DB2ADED7A4AE08D0F70EDBCFE9FFF80E5E
:10111000DBCFEAFFEF88A49E020EDBCFE9FF030ED0
:10112000DBCFEAFFEF9E749E749E010E00D0146E1A
:10113000060EE15C02E2E16AE552E16E1450E5520E
:10114000E7CFD9FF1200D9CFE6FFE1CFD9FF1F0EBD
:101150006F16FE0EDB506F12E00E6E14146EFE0E54
:10116000DB50145C01E0F8D7E552E7CFD9FF12005D
:10117000D9CFE6FFE1CFD9FF020EE126D950F90F12
:10118000146EFF0EDA20156E14C0DEFF15C0DDFFF1
:10119000F80EDB503BE1DECFE9FFDDCFEAFFEF5099
:1011A000E840E840E8401F0BE66EFD0EDBCFE9FFAC
:1011B000FE0EDBCFEAFFE552E750EF6EDECFE9FF30
:1011C000DDCFEAFFEE52EF50200DF3CF14F0FD0E0D
:1011D000DBCFE9FFFE0EDBCFEAFF1450EF12FD0E6E
:1011E000DB2AFE0E01E3DB2ADECFE9FFDDCFEAFFDB
:1011F000EF50200DF350E66EFD0EDBCFE9FFFE0E43
:10120000DBCFEAFFE552E750EF6E88D0DECFE9FF93
:10121000DDCFEAFF020EE926000EEA22EF50E00BD6
:10122000E838E840E66EFD0EDBCFE9FFFE0EDBCFCF
:10123000EAFFE552E750EF6EDECFE9FFDDCFEAFFD0
:10124000030EE926000EEA22EF50080DF3CF14F04A
:10125000FD0EDBCFE9FFFE0EDBCFEAFF1450EF12ED
:10126000FD0EDB2AFE0E01E3DB2ADECFE9FFDDCF38
:10127000EAFF020EE926000EEA22EF50080DF350B5
:10128000E00BE66EFD0EDBCFE9FFFE0EDBCFEAFFE3
:10129000E552E750EF6EFD0EDBCFE9FFFE0EDBCF30
:1012A000EAFFEF86DECFE9FFDDCFEAFF020EE92697
:1012B000000EEA22EF50030B146EFD0EDBCFE9FFA8
:1012C000FE0EDBCFEAFF1450EF12FD0EDB2AFE0EFE
:1012D00001E3DB2ADECFE9FFDDCFEAFFEE52EF507C
:1012E000E66EFD0EDBCFE9FFFE0EDBCFEAFFE55237
:1012F000E750EF6EFD0EDB2AFE0E01E3DB2ADECFA8
:10130000E9FFDDCFEAFFEF50E66EFD0EDBCFE9FF30
:10131000FE0EDBCFEAFFE552E750EF6E020EE15C16
:1013200002E2E16AE552E16EE552E7CFD9FF120031
:10133000D9CFE6FFE1CFD9FF020EE126FB0EDBCFCE
:10134000DEFFDBCFDDFFFA0EDB504DE1FD0EDBCF24
:10135000E9FFFE0EDBCFEAFFEF50080DF350E66E1B
:10136000DECFE9FFDDCFEAFFE552E750EF6EFD0E7D
:10137000DBCFE9FFFE0EDBCFEAFFEF50E00BE838F2
:10138000E840E66EDECFE9FFDDCFEAFFEE52E55240
:10139000E750EF6EFD0EDB2AFE0E01E3DB2AFD0EA9
:1013A000DBCFE9FFFE0EDBCFEAFFEF50E00BE838C2
:1013B000E840146EDECFE9FFDDCFEAFF1450EF12F4
:1013C000DECFE9FFDDCFEAFF020EE926000EEA22BA
:1013D000EF6ADECFE9FFDDCFEAFF030EE926000E5C
:1013E000EA22EF6A84D0FD0EDBCFE9FFFE0EDBCFF1
:1013F000EAFFEF50200DF350E66EDECFE9FFDDCFC0
:10140000EAFF020EE926000EEA22E552E750EF6EEF
:10141000FD0EDBCFE9FFFE0EDBCFEAFFEF50E84029
:10142000E840E8401F0BE66EDECFE9FFDDCFEAFFC4
:10143000030EE926000EEA22E552E750EF6EFD0E9C
:10144000DB2AFE0E01E3DB2AFD0EDBCFE9FFFE0EF9
:10145000DBCFEAFFEF50030B146EDECFE9FFDDCFE9
:10146000EAFF020EE926000EEA221450EF12FD0EEA
:10147000DBCFE9FFFE0EDBCFEAFFEF50E00BE840E9
:10148000E840E8401F0B146EDECFE9FFDDCFEAFF36
:10149000020EE926000EEA221450EF12FD0EDB2A9E
:1014A000FE0E01E3DB2AFD0EDBCFE9FFFE0EDBCFF4
:1014B000EAFFEF50E66EDECFE9FFDDCFEAFFEE5246
:1014C000E552E750EF6EFD0EDB2AFE0E01E3DB2A4C
:1014D000FD0EDBCFE9FFFE0EDBCFEAFFEF50E66E3D
:1014E000DECFE9FFDDCFEAFFE552E750EF6E020EF7
:1014F000E15C02E2E16AE552E16EE552E7CFD9FF35
:101500001200D9CFE6FFE1CFD9FF020EE126FE0E91
:10151000DB50060A2FE0030A28E0010A21E0070A4F
:101520001AE0010A13E0030A0CE0010A05E0700E5C
:10153000DE6E0E0EDD6E23D0600EDE6E0F0EDD6EE3
:101540001ED0500EDE6E0F0EDD6E19D0200EDE6E38
:101550000E0EDD6E14D0300EDE6E0E0EDD6E0FD070
:10156000400EDE6E0E0EDD6E0AD0500EDE6E0E0EDA
:10157000DD6E05D0600EDE6E0E0EDD6E00D0DECFAD
:1015800014F0DDCF15F014C0F3FF15C0F4FF020E08
:10159000E15C03E200D0E16AE552E16EE552E7CF9B
:0415A000D9FF12005D
:0C15A400D9CFE6FFE1CFD9FF280EE126E9
:1015B0000D0EDB6A0E0EDB6A0F0EDB6A100EDB6AA5
:1015C000110EDB6A120EDB6A130EDB6A140EDB6A85
:1015D000150EDB6A160EDB6A170EDB6A180EDB6A65
:1015E000190EDB6A1A0EDB6A1B0EDB6A926A080EA2
:1015F000936E946A956A966A896A8A6A8B6A8C6A1B
:101600008D6A6EEC0FF01BEC06F0738A0D0EDB6A30
:10161000D950170FE66E000EDA20E66ED950160F7D
:10162000E66E000EDA20E66ED9500E0FE66E000E62
:10163000DA20E66ED950180FE66E000EDA20E66E5C
:10164000B6EC07F0146E080EE15E1450E76E0D0E56
:10165000E7CFDBFFDB0401E0DCD10D0EDB6A180E07
:10166000DBCF14F0190EDBCF15F01A0EDBCF16F01E
:101670001B0EDBCF17F0FD0E1412141805E11550E8
:1016800003E1165001E1175070E1FC0E146E156A6B
:10169000166A176AD950180FE96EDACFEAFFEE50D2
:1016A0001416EE501516EE501616EE501716020EC2
:1016B000D8901732163215321432E806F9E1070EC7
:1016C00014C0DBFF080E15C0DBFFD9500E0FE66E0D
:1016D000000EDA20E66ED950040FE66E000EDA2016
:1016E000E66EA3D9E552E552E552E552100EDB5005
:1016F000E76E060EE7CFDBFF040EDBCFE6FF050E3D
:10170000DBCFE6FF070EDBCFE6FF080EDBCFE6FF01
:10171000BD0E146E1C0E156E166A14C0E6FF15C0C1
:10172000E6FF16C0E6FF9BEC0DF0176E070EE15EBC
:101730001750060EDBCFE6FFE66A070EDBCFE6FFAB
:10174000080EDBCFE6FFAE0E146E1C0E156E166A89
:1017500014C0E6FF15C0E6FF16C0E6FF9BEC0DF0D7
:10176000176E070EE15E175031D1D950180FE96E90
:10177000DACFEAFF010EEE1806E1010EEE1803E1E2
:10178000EE5001E1EE503AE1160EDB50040835E16F
:10179000D9500E0F146EDACF15F0200E14C0DBFFF7
:1017A000210E15C0DBFFD9500E0F146EDACF15F0E5
:1017B000220E14C0DBFF230E15C0DBFF220EDBCF91
:1017C000E9FF230EDBCFEAFFEECFE6FFEECFE6FF29
:1017D000EECFE6FFEFCFE6FFA50E146E1C0E156EE2
:1017E000166A14C0E6FF15C0E6FF16C0E6FF9BECC4
:1017F0000DF0176E070EE15E1750E8D0D950180FA4
:10180000E96EDACFEAFF010EEE1806E1030EEE18DC
:1018100003E1EE5001E1EE502FE1160EDB5004081B
:101820002AE1D9500E0F146EDACF15F0240E14C031
:10183000DBFF250E15C0DBFF240EDBCFE9FF250EF5
:10184000DBCFEAFFEECFE6FFEECFE6FFEECFE6FF1F
:10185000EFCFE6FF9D0E146E1C0E156E166A14C0B7
:10186000E6FF15C0E6FF16C0E6FF9BEC0DF0176E15
:10187000070EE15E1750AAD0D950180FE96EDACFE3
:10188000EAFF030EEE1806E1010EEE1803E1EE503A
:1018900001E1EE5001E09AD0160EDB5004086EE133
:1018A000890E146E1C0E156E166A14C0E6FF15C064
:1018B000E6FF16C0E6FF9BEC0DF0E552E552E5525F
:1018C000D9500F0FE66E000EDA20E66ED950040FE5
:1018D000E66E000EDA20E66EA8D8E552E552E55233
:1018E000E552110EDB50E76E060EE7CFDBFF0E0E62
:1018F000DBCF14F0156A14BE156814C0E6FF15C0DE
:10190000E6FF7B0E166E1C0E176E186A16C0E6FFF9
:1019100017C0E6FF18C0E6FF9BEC0DF0196E050E30
:10192000E15E1950040EDBCFE6FF050EDBCFE6FFCC
:101930006F0E146E1C0E156E166A14C0E6FF15C0ED
:10194000E6FF16C0E6FF9BEC0DF0176E050EE15E9C
:101950001750060EDBCFE6FFE66A610E146E1C0E12
:10196000156E166A14C0E6FF15C0E6FF16C0E6FF46
:101970009BEC0DF0176E050EE15E1750160EDB04A2
:1019800025E1D9500E0F146EDACF15F0260E14C0D3
:10199000DBFF270E15C0DBFF260EDBCFE9FF270E8E
:1019A000DBCFEAFFEF50E66EE66A580E146E1C0EAF
:1019B000156E166A14C0E6FF15C0E6FF16C0E6FFF6
:1019C0009BEC0DF0176E050EE15E1750D950170F06
:1019D000E66E000EDA20E66ED950160FE66E000EA7
:1019E000DA20E66ED9500E0FE66E000EDA20E66EB3
:1019F000D950180FE66E000EDA20E66EB6EC07F04E
:101A0000146E080EE15E1450E76E0D0EE7CFDBFF9B
:101A100021D6FCD5280EE15C03E200D0E16AE55254
:101A2000E16EE552E7CFD9FF1200D9CFE6FFE1CF53
:101A3000D9FFFB0EDBCFE9FFFC0EDBCFEAFFEF5057
:101A4000E66EFD0EDBCFE9FFFE0EDBCFEAFFE552CF
:101A5000E750EF6E010EE76EFB0EDBCFE9FFFC0EE9
:101A6000DBCFEAFFE750E926000EEA22EF50E66EF0
:101A7000010EE76EFD0EDBCFE9FFFE0EDBCFEAFFC6
:101A8000E750E926000EEA22E552E750EF6E00D05B
:081A9000E552E7CFD9FF120077
:081A9800060EF66E000EF76E5B
:101AA000000EF86E00010900F550656F0900F55051
:101AB000666F03E1656701D03DD00900F550606FA6
:101AC0000900F550616F0900F550626F09000900C7
:101AD000F550E96E0900F550EA6E090009000900A9
:101AE000F550636F0900F550646F09000900F6CFE7
:101AF00067F0F7CF68F0F8CF69F060C0F6FF61C01B
:101B0000F7FF62C0F8FF0001635302E1645307E08E
:101B10000900F550EE6E6307F8E26407F9D767C075
:101B2000F6FF68C0F7FF69C0F8FF00016507000E07
:061B3000665BBFD7120046
:0A1B3600D9CFE6FFDACFE6FFE1CFDA
:101B4000D9FFE2CFDAFFE652E652E652E652D9502A
:101B5000FB0F146EFF0EDA20156E14C0DEFFDD6E73
:101B6000DECFE6FFDDCFE6FFFB0EDBCFE6FFFC0EB0
:101B7000DBCFE6FFFD0EDBCFE6FF6AC0E6FF6BC002
:101B8000E6FF20EC00F0146E070EE15C02E2E16A71
:101B9000E552E16E1450020EF3CFDBFF030EF4CFDB
:101BA000DBFF020EDBCF14F0030EDBCF15F014C009
:101BB000F3FF15C0F4FF040EE15C02E2E16AE552B6
:0E1BC000E16EE552E5CFDAFFE7CFD9FF120064
:021BCE00D9CF6D
:101BD000E6FFDACFE6FFE1CFD9FFE2CFDAFFAC6A6A
:101BE000AB6AFD0EDBB0AC88DBA202D0AC8CAB8C58
:101BF000DBB4AC8EDBA602D0AB8801D0AB8ADBB8FD
:101C0000AC849E98DBBAAB86DBAC02D09D8A01D057
:101C10009D9A9E9ADBAE02D09D8801D09D98FB0EC6
:101C2000DB50AF6EFB0EFC0EDBCF15F015C014F0D1
:101C3000156A1450B06EAC8AAB8E949C948EAC50E6
:101C4000100B04E0AC50800B01E1948CE552E5CF21
:081C5000DAFFE7CFD9FF120013
:081C58004342533D25640A0DCF
:101C60000074656D70203D20252E32640A0D0056EB
:101C70006F6C74203D2025750A0D0041646472204C
:101C80003D20252E32780A0D005368757474696EF4
:101C9000672043617220446F776E0A0D00453D2531
:101CA0006C640A0D0042433D256C640A0D00545BD0
:101CB000252E32645D3D252E32640A0D00565B25CB
:101CC0002E32645D3D25750A0D0053657269616CA5
:0F1CD00020506F7274204F6E6C696E650A0D00A4
:101CE000D9CFE6FFDACFE6FFE1CFD9FFE2CFDAFFC7
:101CF000FB0EDBCF14F0FC0EDBCF15F00001800EE5
:101D000015141AE1FB0EDBCFE9FFFC0EDBCFEAFF77
:101D1000EECFF3FFEDCFF4FFEE2A000EEF22F3CF6C
:101D2000E9FFF4CFEAFFFD0EDBCFEFFFEF50156ABE
:101D3000F36E15C0F4FF10D0FB0EDB50FE0806E179
:101D4000FD0EDBCFE6FFAAEC0FF005D0FD0EDBCFDA
:101D5000E6FFC8EC0FF0E552E552E5CFDAFFE7CF3A
:041D6000D9FF120095
:0C1D640004500B02F3CF00F0F4CF01F0AC
:101D70000C02F3500126000EF420026E04500D02F6
:101D8000F3500226000EF420036E04500E02F350AE
:101D9000032605500B02F3500126F4500222000ED8
:101DA000032205500C02F3500226F4500322055082
:101DB0000D02F350032606500B02F3500226F45096
:101DC000032206500C02F350032607500B02F35077
:041DD00003261200D4
:0C1DD400FE0EE3CFE9FFFF0EE3CFEAFFB5
:101DE000F36AF46AEE5203E0F34AF42AFBD71200D6
:101DF000FF0EE3CFF8FFE552FF0EE3CFF7FFE5520A
:101E0000FF0EE3CFF6FFE552E66AE66AE66A0900EE
:101E1000F55209E0FD0EE32A05E1FE0EE32A02E198
:101E2000FF0EE32AF4D7FD0EE3CF05F0FE0EE3CF5D
:0A1E300006F0FF0EE3CF07F01200EA
:061E3A0007C013F006C012
:101E400012F006500D02F4CF05F0F3CF04F0075066
:101E50000E02F4CF07F0F3CF06F00D02F350052683
:101E6000F4500622E86A072212500E02F3500526AB
:101E7000F4500622E86A07220EAE43EF0FF012502C
:101E8000065E1350075A13AE000C0D50065E0E503E
:041E9000075A000CE1
:0C1E9400036A026A016A006A200EE76E11
:101EA000D890043605360636073600360136023637
:101EB00003360B50005C0C5001580D5002580E5068
:101EC000035809E30B50005E0C50015A0D50025AA2
:0C1ED0000E50035A042AE72EE4D712003B
:041EDC00470EE66E59
:101EE000E66A3C0EE66EE7EC0DF0E552E552E5528F
:101EF000CA0E146E1C0E156E166A14C0E6FF15C0CD
:101F0000E6FF16C0E6FF9BEC0DF0E552E552E55208
:041F100000D01200EB
:0C1F1400F36AF46AFF0EE124E96EFF0E90
:101F2000E220EA6EED6607D02F0EEF6404D03A0E81
:081F3000EF6001D0F32A12005A
:081F380012EE00F022EE00F0B1
:101F4000F86A0A9C4CEC0DF0C9EC0FF0D2EC0AF0E8
:041F5000FBD71200A9
:0C1F5400FF0EE350ACBA04D0AF6AAB8EB5
:101F6000AC8A949CACA2FED7AD6EF36EF46A1200FC
:101F700030313233343536373839616263646566FF
:011F80000060
:0E1F820000EE00F00D0EEE6AEA62FDD71200CE
:021F900012003D
:021F920012003B
:021F9400FEFF4E
:020000040030CA
:0100010002FC
:010002001FDE
:010003001FDD
:010006008178
:00000001FF
